:020000040800F2
:1000000000000220B52400084924000855240008F7
:100010005B24000861240008672400080000000039
:100020000000000000000000000000006D24000837
:1000300079240008000000008524000891240008AD
:1000400005250008052500080525000805250008E8
:1000500005250008052500080525000805250008D8
:1000600005250008052500080525000805250008C8
:1000700005250008052500080525000805250008B8
:1000800005250008052500080525000805250008A8
:100090000525000805250008052500080525000898
:1000A0000525000805250008052500080525000888
:1000B0000525000805250008052500080525000878
:1000C0000525000805250008052500080525000868
:1000D0000525000805250008052500080525000858
:1000E0000525000805250008052500080525000848
:1000F0000525000805250008052500080525000838
:100100000525000805250008052500080525000827
:100110000525000805250008052500080525000817
:100120000525000805250008052500080525000807
:1001300005250008052500080525000805250008F7
:1001400005250008052500080525000805250008E7
:1001500005250008052500080525000805250008D7
:1001600005250008052500080525000805250008C7
:1001700005250008052500080525000800000000E9
:08018000052500080525000813
:1001880053B94AB9002908BF00281CBF4FF0FF31F6
:100198004FF0FF3000F00CB8ADF1080C6DE904CE5B
:1001A80002F0AEF9DDF804E0DDE9022304B070479F
:1001B800704700BF10B5054C237833B9044B13B111
:1001C8000448AFF300800123237010BD1400002001
:1001D800000000002028000808B5034B1BB10349A4
:1001E8000348AFF3008008BD00000000180000209D
:1001F8002028000880B500AF00222021064801F021
:10020800F9F9052000F054FF01222021024801F0ED
:10021800F1F900BF80BD00BF0004024080B483B084
:1002280000AF0346FB804FF0C042FB88138000BF3D
:100238000C37BD4680BC704780B483B000AF03461E
:10024800FB80044AFB88138000BF0C37BD4680BC86
:10025800704700BF0000026080B483B000AF7860D0
:10026800396005E07B689A1C7A60074A1B8813800E
:100278003B685A1E3A60002BF4D100BF00BF0C3710
:10028800BD4680BC704700BF0000026090B587B0D3
:1002980000AF0446084611461A462346FB8003462B
:1002A800BB800B467B8013463B802A20FFF7B6FFB6
:1002B800FB881B0A9BB23B82FB88DBB29BB27B822A
:1002C8007B881B0A9BB2BB827B88DBB29BB2FB821A
:1002D80007F1100304211846FFF7BEFF2B20FFF794
:1002E8009DFFBB881B0A9BB23B81BB88DBB29BB2DC
:1002F8007B813B881B0A9BB2BB813B88DBB29BB2EC
:10030800FB8107F1080304211846FFF7A5FF2C20FD
:10031800FFF784FF00BF1C37BD4690BDB0B5A8B03D
:1003280000AFFFF767FF0120FFF778FF4FF4FA707F
:1003380000F0BEFECB20FFF771FF8B4A07F1940354
:1003480007CA03C31A8007F1940305211846FFF76B
:1003580083FFCF20FFF762FF844A07F18C0392E8FE
:10036800030018600433198007F18C030321184631
:10037800FFF772FFE820FFF751FF7D4A07F184037A
:1003880092E8030018600433198007F184030321FD
:100398001846FFF761FFEA20FFF740FF0023A7F8A0
:1003A80080300023A7F8823007F180030221184625
:1003B800FFF752FFED20FFF731FF6E4A07F1780390
:1003C80092E8030083E8030007F178030421184644
:1003D800FFF742FFF720FFF721FF2023A7F874302B
:1003E80007F1740301211846FFF736FFC020FFF715
:1003F80015FF2323A7F8703007F170030121184671
:10040800FFF72AFFC120FFF709FF1023A7F86C3078
:1004180007F16C0301211846FFF71EFFC520FFF7FF
:10042800FDFE554B1B68BB6607F1680302211846A1
:10043800FFF712FFC720FFF7F1FE8623A7F8643005
:1004480007F1640301211846FFF706FF3620FFF77E
:10045800E5FE4823A7F8603007F16003012118463C
:10046800FFF7FAFE3A20FFF7D9FE5523A7F85C30CC
:1004780007F15C0301211846FFF7EEFEB120FFF7F4
:10048800CDFE0023A7F858301823A7F85A3007F1F3
:10049800580301211846FFF7DFFEB620FFF7BEFE1E
:1004A800364A07F1500392E80300186004331980B4
:1004B80007F1500303211846FFF7CEFEF220FFF79D
:1004C800ADFE0023A7F84C3007F14C030121184674
:1004D800FFF7C2FE2620FFF7A1FE0123A7F8483048
:1004E80007F1480301211846FFF7B6FEE020FFF7A1
:1004F80095FE234B07F128041D460FCD0FC495E840
:100508000F0007C4238007F128030F211846FFF7BF
:10051800A3FEE120FFF782FE1A4B07F108041D46EF
:100528000FCD0FC495E80F0007C4238007F1080317
:100538000F211846FFF790FE1120FFF76FFE782075
:1005480000F0B6FD2920FFF769FE3620FFF766FEAA
:10055800E823BB803B1D01211846FFF77DFE00BF45
:10056800A037BD46B0BD00BF3828000844280008A1
:100578004C280008542800085C2800086028000857
:10058800682800088828000880B582B000AF0346B4
:10059800FB800B46BB8013467B80FB88B3F5A07FAE
:1005A80011D2BB88EF2B0ED8FB8801339AB2BB88D7
:1005B80001339BB2B988F888FFF768FE7B88184634
:1005C800FFF73AFE00E000BF0837BD4680BD82B0A5
:1005D80090B587B000AFFB620346FB800B46BB803B
:1005E8001346FB7097F82C309AB2FB8813449BB2E1
:1005F800013B9CB297F82D309AB2BB8813449BB24A
:10060800013B9BB2B988F8882246FFF73FFE0023DA
:100618007B612DE03A6BFB78203B97F82D1001FBAE
:1006280003F319467B690B445B0013441B88FB608A
:1006380000233B6113E0FA683B6902FA03F303F411
:100648000043002B04D0BB8E1846FFF7F5FD03E0EE
:100658003B8F1846FFF7F0FD3B6901333B6197F884
:100668002C301A463B699342E5D37B6901337B61A1
:1006780097F82D301A467B699342CBD300BF00BF51
:100688001C37BD46BDE8904002B0704782B080B5C7
:1006980086B004AF3A607B610346FB800B46BB80A3
:1006A8002EE0FB883A7D1344B3F5A07F13DB0023CB
:1006B800FB807B7D9AB2BB881344BB80BB887A7D64
:1006C8001344EF2B21DC3B681B78202B03D13B68BC
:1006D80001333B6014E03B681A78B988F8883B8C92
:1006E8000293BB8B0193BB6900937B69FFF76FFF94
:1006F8003B7D9AB2FB881344FB803B6801333B6027
:100708003B681B78002BCCD100E000BF00BF083746
:10071800BD46BDE8804002B0704790B583B000AFD9
:100728000446084611461A462346FB800346BB800A
:100738000B467B8013463B80FB88B3F5A07F3DD2F8
:10074800BB88EF2B3AD8FA887B881344B3F5A07F8F
:1007580003DDFB88C3F5A0737B80BA883B8813440C
:10076800F02B03DDBB88C3F1F0033B80FA887B885C
:1007780013449BB2013B9CB2BA883B8813449BB29A
:10078800013B9BB2B988F8882246FFF77FFD3B887A
:10079800BB800FE07B88FB8006E03B8B1846FFF7A9
:1007A8004BFDFB88013BFB80FB88002BF5D1BB8808
:1007B800013BBB80BB88002BECD100E000BF0C37AD
:1007C800BD4690BD80B584B002AF0346FB80FB8870
:1007D8000093F0234FF4A07200210020FFF79DFF43
:1007E80000BF0837BD4680BD90B587B000AF04464E
:1007F800084611461A462346FB800346BB800B4633
:100808007B8013463B803A88BB88D31A83EAE3721D
:10081800A2EBE3727988FB88CB1A002BB8BF5B4246
:100828009A42CCBF01230023DBB27B827B8A002B58
:100838000BD0FB883B82BB88FB803B8ABB807B88D4
:100848003B823B887B803B8A3B80FA887B889A4244
:100858000BD9FB883B827B88FB803B8A7B80BB88EB
:100868003B823B88BB803B8A3B807A88FB88D31AD3
:100878009BB2FB813A88BB88D31A002BB8BF5B4276
:10088800BB81B7F90E30DA0F13445B10FB82BA88CC
:100898003B889A4202D20123BB8228E04FF6FF73BD
:1008A800BB8224E07B8A002B06D03A8DF988BB886E
:1008B8001846FFF769FE05E03A8DB988FB881846A7
:1008C800FFF762FEFA8ABB89D31A9BB2FB82B7F99B
:1008D8001630002B08DABA8ABB881344BB80FA8A20
:1008E800FB8913449BB2FB82FB880133FB80FA88A7
:1008F8007B889A42D6D900BF00BF1C37BD4690BD41
:1009080090B587B000AF0446084611461A462346FC
:10091800FB800346BB800B46FB7013463B80FB788D
:100928009BB2C3F101039BB2FB820123BB82FB781C
:100938009BB21A46D203D31A5B009BB27B82002378
:100948003B82FB78FB81FB789AB2BB88134499B24F
:100958003A88FB881846FFF717FEFB789BB2BA88DF
:10096800D31A99B23A88FB881846FFF70DFEFB7830
:100978009AB2FB8813449BB23A88B9881846FFF7A5
:1009880003FEFB789BB2FA88D31A9BB23A88B988DF
:100998001846FFF7F9FD81E0B7F91630002B0EDB9A
:1009A800B7F90E309BB2013B9BB2FB817B8A0233C5
:1009B8009BB27B82FA8A7B8A13449BB2FB82B7F98B
:1009C80010309BB201339BB23B82BB8A02339BB28D
:1009D800BB82FA8ABB8A13449BB2FB823A8AFB88A1
:1009E800134498B2FA89BB8813449BB23A881946D3
:1009F800FFF7CAFD3B8AFA88D31A98B2FA89BB88EE
:100A080013449BB23A881946FFF7BEFD3A8AFB8821
:100A1800134498B2FB89BA88D31A9BB23A8819460C
:100A2800FFF7B2FD3B8AFA88D31A98B2FB89BA88D5
:100A3800D31A9BB23A881946FFF7A6FDFA89FB88B4
:100A4800134498B23A8ABB8813449BB23A88194631
:100A5800FFF79AFDFB89FA88D31A98B23A8ABB88BD
:100A680013449BB23A881946FFF78EFDFA89FB8832
:100A7800134498B23B8ABA88D31A9BB23A8819466B
:100A8800FFF782FDFB89FA88D31A98B23B8ABA88A5
:100A9800D31A9BB23A881946FFF776FDB7F91020AA
:100AA800B7F90E309A42FFF677AF00BF00BF1C3788
:100AB800BD4690BD90B589B002AF044608461146C0
:100AC8001A462346FB800346BB800B467B801346B1
:100AD8003B807B88C3F101039BB2FB820123BB826D
:100AE8007B881A46D203D31A5B009BB27B82002311
:100AF8003B827B88FB81F888BA887B8813449BB249
:100B08003A881946FFF740FDF888BA887B88D31AD7
:100B18009BB23A881946FFF737FDFA887B88134459
:100B28009BB2B9883A881846FFF72EFDFA887B8869
:100B3800D31A9BB2B9883A881846FFF725FDFA8878
:100B48007B88D31A98B2B988FA887B8813449AB2FA
:100B5800BC883B8800932346FFF746FE79E0B7F947
:100B68001630002B0EDBB7F90E309BB2013B9BB25F
:100B7800FB817B8A02339BB27B82FA8A7B8A13448D
:100B88009BB2FB82B7F910309BB201339BB23B8218
:100B9800BB8A02339BB2BB82FA8ABB8A13449BB2DC
:100BA800FB82FA883B8AD31A98B2BA88FB89134425
:100BB80099B2FA883B8A13449CB2BA88FB891344D9
:100BC8009AB23B88009313462246FFF70DFEFA8837
:100BD8003B8A134498B2BA88FB89D31A99B2FA8827
:100BE8003B8AD31A9CB2BA88FB89D31A9AB23B883B
:100BF800009313462246FFF7F7FDFA88FB89134452
:100C080098B2BA883B8A134499B2FA88FB89D31AF6
:100C18009CB2BA883B8A13449AB23B880093134625
:100C28002246FFF7E1FDFA88FB89134498B2BA8897
:100C38003B8AD31A99B2FA88FB89D31A9CB2BA882C
:100C48003B8AD31A9AB23B88009313462246FFF791
:100C5800CBFDB7F91020B7F90E309A42FFF67FAFF7
:100C680000BF00BF1C37BD4690BD90B585B002AF30
:100C78000446084611461A462346FB800346BB80B5
:100C88000B467B8013463B803C887A88B988F88875
:100C98003B8C00932346FFF7A7FDBC8B3A8B398822
:100CA80078883B8C00932346FFF79EFDBC88FA8822
:100CB800B98B388B3B8C00932346FFF795FD00BF1B
:100CC8000C37BD4690BD90B58DB002AF04460846BE
:100CD80011461A462346FB800346BB800B467B80A1
:100CE80013463B8000233B820023FB810023FB84C7
:100CF8000023BB8400237B8400233B840023FB83E5
:100D08000023BB8300237B8300233B830023FB82D8
:100D18000023BB8200237B827A88FB88D31A002BAE
:100D2800B8BF5B423B823A88BB88D31A002BB8BF56
:100D38005B42FB81FB88FB84BB88BB847A88FB8889
:100D48009A4204D301237B8401233B8405E04FF6B8
:100D5800FF737B844FF6FF733B843A88BB889A42C3
:100D680004D30123FB830123BB8305E04FF6FF7304
:100D7800FB834FF6FF73BB83B7F91020B7F90E302A
:100D88009A4210DB00237B840023BB833B8A7B834E
:100D9800B7F91030DA0F13445B103B83FB89FB82F1
:100DA8003B8ABB820FE000233B840023FB83FB8943
:100DB8007B83B7F90E30DA0F13445B103B833B8A11
:100DC800FB82FB89BB8200237B8233E0F88CB98CE1
:100DD800BC8F3A8FB7F8403000932346FFF704FDE5
:100DE8003A8BFB8A13449BB23B83B7F91820B7F9B7
:100DF8001A309A420EDB3A8B7B8BD31A9BB23B8319
:100E0800FA8C7B8C13449BB2FB84BA8CFB8B134407
:100E18009BB2BB84FA8C3B8C13449BB2FB84BA8C88
:100E2800BB8B13449BB2BB84B7F912309BB201331E
:100E38009BB27B82B7F91220B7F914309A42C5DD0C
:100E480000BF00BF2C37BD4690BD000080B584B000
:100E580004AF4FF6FF70FFF7B5FC4FF47A7000F05F
:100E680027F95A4B4FF6FF7202924FF478420192DB
:100E78005A6800921B68564A0A210A20FFF706FCA6
:100E88004FF47A7000F014F94FF47840FFF79AFCA9
:100E98004FF47A7000F00CF91F20FFF793FC4FF421
:100EA8007A7000F005F94FF4FC60FFF78BFC4FF403
:100EB8007A7000F0FDF84FF6E070FFF783FC4FF40E
:100EC8007A7000F0F5F840F2FF70FFF77BFC4FF402
:100ED8007A7000F0EDF84FF61F00FFF773FC4FF43F
:100EE8007A7000F0E5F80020FFF76CFC4FF4FA6028
:100EF80000F0DEF84FF6FF73009314231E220A2138
:100F08000A20FFF70AFC40F2DC5000F0D1F800207C
:100F1800FFF758FC4FF6FF7300931E231E220A2189
:100F28000A20FFF761FC40F2DC5000F0C1F8002015
:100F3800FFF748FC4FF6FF73322264216420FFF765
:100F4800DFFC40F2DC5000F0B3F80020FFF73AFC79
:100F58004FF6FF73322264216420FFF7ABFD40F2A5
:100F6800DC5000F0A5F80020FFF72CFC4FF6FF73CB
:100F780002930A23019364230093322332220A2125
:100F88000A20FFF772FE40F2DC5000F091F80020D2
:100F9800FFF718FC4FF6FF7302930A2301936423AB
:100FA8000093322332220A210A20FFF78CFE40F2F6
:100FB800DC5000F07DF84FF6FF70FFF703FC4FF4AC
:100FC8007A7000F075F800BFBD4680BD00000020B3
:100FD800A828000880B500AF0E4B1B680D4A43F4E3
:100FE800007313600B4B1B680A4A43F48063136059
:100FF800084B1B68074A43F480731360032000F012
:101008002BF9002000F008F801F0F4F90023184645
:1010180080BD00BF003C024080B582B000AF786060
:10102800124B1A68124B1B7819464FF47A73B3FBAC
:10103800F1F3B2FBF3F3184600F035F90346002B41
:1010480001D001230EE07B680F2B0AD800227968B3
:101058004FF0FF3000F00BF9064A7B68136000235D
:1010680000E0012318460837BD4680BD1000002067
:101078000C0000200800002080B400AF054B1B784E
:101088001A46054B1B681344034A136000BFBD464C
:1010980080BC70470C0000203000002080B400AFF6
:1010A800024B1B681846BD4680BC704730000020C4
:1010B80080B584B000AF7860FFF7F0FFB8607B6858
:1010C800FB60FB68B3F1FF3F05D00A4B1B781A465B
:1010D800FB681344FB6000BFFFF7E0FF0246BB68F4
:1010E800D31AFA689A42F7D800BF00BF1037BD4636
:1010F80080BD00BF0C00002080B485B000AF7860D0
:101108007B6803F00703FB600C4BDB68BB60BA68C5
:101118004FF6FF031340BB60FB681A02BB6813431A
:1011280043F0BF6343F40033BB60044ABB68D36039
:1011380000BF1437BD4680BC704700BF00ED00E01B
:1011480080B400AF044BDB681B0A03F007031846A2
:10115800BD4680BC704700BF00ED00E080B483B09E
:1011680000AF03463960FB7197F90730002B0ADBA3
:101178003B68DAB20C4997F907301201D2B20B4436
:1011880083F800230AE03B68DAB20849FB7903F0E8
:101198000F03043B1201D2B20B441A7600BF0C377E
:1011A800BD4680BC704700BF00E100E000ED00E0F4
:1011B80080B489B000AFF860B9607A60FB6803F06A
:1011C8000703FB61FB69C3F10703042B28BF042352
:1011D800BB61FB690433062B02D9FB69033B00E0C2
:1011E80000237B614FF0FF32BB6902FA03F3DA4355
:1011F800BB681A407B699A404FF0FF317B6901FA5E
:1012080003F3D9437B680B40134318462437BD4684
:1012180080BC704780B582B000AF78607B68013BC6
:10122800B3F1807F01D301230FE00A4A7B68013BB9
:1012380053600F214FF0FF30FFF790FF054B00225E
:101248009A60044B07221A60002318460837BD46E7
:1012580080BD00BF10E000E080B582B000AF7860CC
:101268007868FFF749FF00BF0837BD4680BD80B5E5
:1012780086B000AF0346B9607A60FB7300237B61D8
:10128800FFF75EFF78617A68B9687869FFF790FFC1
:10129800024697F90F3011461846FFF75FFF00BF67
:1012A8001837BD4680BD80B582B000AF78607868D9
:1012B800FFF7B0FF034618460837BD4680BD00005B
:1012C80080B489B000AF7860396000237B61002367
:1012D8003B610023BB610023FB616BE10122FB69D9
:1012E80002FA03F37B613B681B687A6913403B6130
:1012F8003A697B699A4240F05A813B685B68012BE6
:101308000BD03B685B68022B07D03B685B68112BEE
:1013180003D03B685B68122B30D17B689B68BB614C
:10132800FB695B00032202FA03F3DB43BA6913404B
:10133800BB613B68DA68FB695B0002FA03F3BA69D0
:101348001343BB617B68BA699A607B685B68BB6161
:101358000122FB6902FA03F3DB43BA691340BB615C
:101368003B685B681B0903F00102FB6902FA03F39F
:10137800BA691343BB617B68BA695A607B68DB68EA
:10138800BB61FB695B00032202FA03F3DB43BA6922
:101398001340BB613B689A68FB695B0002FA03F380
:1013A800BA691343BB617B68BA69DA603B685B68FA
:1013B800022B03D03B685B68122B23D1FB69DA0848
:1013C8007B68083253F82230BB61FB6903F00703DE
:1013D8009B000F2202FA03F3DB43BA691340BB6197
:1013E8003B681A69FB6903F007039B0002FA03F3E1
:1013F800BA691343BB61FB69DA087B680832B969CB
:1014080043F822107B681B68BB61FB695B00032201
:1014180002FA03F3DB43BA691340BB613B685B68BC
:1014280003F00302FB695B0002FA03F3BA69134392
:10143800BB617B68BA691A603B685B6803F08053DC
:10144800002B00F0B4800023FB605F4B5B6C5E4AAE
:1014580043F4804353645C4B5B6C03F48043FB6050
:10146800FB685A4AFB699B08023352F82330BB6178
:10147800FB6903F003039B000F2202FA03F3DB432B
:10148800BA691340BB617B68514A93422BD07B6891
:10149800504A934225D07B684F4A93421FD07B68BD
:1014A8004E4A934219D07B684D4A934213D07B68C9
:1014B8004C4A93420DD07B684B4A934207D07B68D5
:1014C8004A4A934201D107230EE008230CE0062381
:1014D8000AE0052308E0042306E0032304E00223CE
:1014E80002E0012300E00023FA6902F003029200FF
:1014F8009340BA691343BB613449FB699B080233C3
:10150800BA6941F823203A4B1B68BB613B69DB434E
:10151800BA691340BB613B685B6803F48033002BF6
:1015280003D0BA693B691343BB61314ABB69136095
:101538002F4B5B68BB613B69DB43BA691340BB61F6
:101548003B685B6803F40033002B03D0BA693B693E
:101558001343BB61264ABB695360254B9B68BB613B
:101568003B69DB43BA691340BB613B685B6803F4C2
:101578008013002B03D0BA693B691343BB611C4A33
:10158800BB6993601A4BDB68BB613B69DB43BA6993
:101598001340BB613B685B6803F40013002B03D066
:1015A800BA693B691343BB61114ABB69D360FB69E4
:1015B8000133FB61FB690F2B7FF690AE00BF00BFC4
:1015C8002437BD4680BC70470038024000380140CF
:1015D800000002400004024000080240000C0240E3
:1015E800001002400014024000180240001C024093
:1015F800003C014080B483B000AF78600B467B802C
:1016080013467B707B78002B03D07A887B689A61BD
:1016180003E07B881A047B689A6100BF0C37BD46DB
:1016280080BC704780B586B000AF78607B68002BBF
:1016380001D101235BE27B681B6803F00103002BE7
:1016480075D0A34B9B6803F00C03042B0CD0A04B64
:101658009B6803F00C03082B12D19D4B5B6803F4C5
:101668008003B3F5800F0BD1994B1B6803F400334B
:10167800002B5BD07B685B68002B57D1012336E2D7
:101688007B685B68B3F5803F06D1914B1B68904A35
:1016980043F4803313601DE07B685B68B3F5A02FCB
:1016A8000CD18B4B1B688A4A43F480231360884B08
:1016B8001B68874A43F4803313600BE0844B1B6834
:1016C800834A23F480331360814B1B68804A23F4D8
:1016D800802313607B685B68002B13D0FFF7DEFC68
:1016E800386108E0FFF7DAFC02463B69D31A642B3D
:1016F80001D90323FBE1764B1B6803F40033002B6D
:10170800F0D014E0FFF7CAFC386108E0FFF7C6FC28
:1017180002463B69D31A642B01D90323E7E16C4BDA
:101728001B6803F40033002BF0D100E000BF7B6896
:101738001B6803F00203002B63D0654B9B6803F022
:101748000C03002B0BD0624B9B6803F00C03082B97
:101758001CD15F4B5B6803F48003002B16D15C4BF4
:101768001B6803F00203002B05D07B68DB68012BA4
:1017780001D00123BBE1564B1B6823F0F8027B68BC
:101788001B69DB00524913430B603AE07B68DB6856
:10179800002B20D04F4B01221A60FFF77FFC3861E5
:1017A80008E0FFF77BFC02463B69D31A022B01D9FC
:1017B80003239CE1464B1B6803F00203002BF0D087
:1017C800434B1B6823F0F8027B681B69DB00404928
:1017D80013430B6015E03F4B00221A60FFF75EFCD5
:1017E800386108E0FFF75AFC02463B69D31A022B1E
:1017F80001D903237BE1364B1B6803F00203002B5E
:10180800F0D17B681B6803F00803002B30D07B689D
:101818005B69002B16D0304B01221A60FFF73EFCA3
:10182800386108E0FFF73AFC02463B69D31A022BFD
:1018380001D903235BE1264B5B6F03F00203002B06
:10184800F0D015E0244B00221A60FFF727FC38611E
:1018580008E0FFF723FC02463B69D31A022B01D9A3
:10186800032344E11A4B5B6F03F00203002BF0D112
:101878007B681B6803F00403002B00F0A0800023A2
:10188800FB75134B1B6C03F08053002B0FD1002307
:10189800BB600F4B1B6C0E4A43F0805313640C4B18
:1018A8001B6C03F08053BB60BB680123FB750B4BBB
:1018B8001B6803F48073002B21D1084B1B68074A6F
:1018C80043F480731360FFF7E9FB386111E000BF50
:1018D8000038024000004742800E47420070004036
:1018E800FFF7DCFB02463B69D31A022B01D903231D
:1018F800FDE0814B1B6803F48073002BF0D07B68FC
:101908009B68012B06D17D4B1B6F7C4A43F001037A
:1019180013671CE07B689B68052B0CD1774B1B6F0A
:10192800764A43F004031367744B1B6F734A43F002
:10193800010313670BE0714B1B6F704A23F001031F
:1019480013676E4B1B6F6D4A23F0040313677B68A4
:101958009B68002B15D0FFF7A1FB38610AE0FFF761
:101968009DFB02463B69D31A41F28832934201D962
:101978000323BCE0614B1B6F03F00203002BEED086
:1019880014E0FFF78BFB38610AE0FFF787FB02469C
:101998003B69D31A41F28832934201D90323A6E066
:1019A800564B1B6F03F00203002BEED1FB7D012B7E
:1019B80005D1524B1B6C514A23F0805313647B684A
:1019C8009B69002B00F092804C4B9B6803F00C0342
:1019D800082B5CD07B689B69022B41D1484B0022C5
:1019E8001A60FFF75BFB386108E0FFF757FB024618
:1019F8003B69D31A022B01D9032378E03F4B1B68BC
:101A080003F00073002BF0D17B68DA697B681B6AEE
:101A18001A437B685B6A9B011A437B689B6A5B0875
:101A2800013B1B041A437B68DB6A1B0633491343DB
:101A38004B60334B01221A60FFF730FB386108E036
:101A4800FFF72CFB02463B69D31A022B01D903236B
:101A58004DE02A4B1B6803F00073002BF0D045E0E3
:101A6800274B00221A60FFF719FB386108E0FFF7DF
:101A780015FB02463B69D31A022B01D9032336E032
:101A88001E4B1B6803F00073002BF0D12EE07B681F
:101A98009B69012B01D1012329E0184B9B68FB604E
:101AA800FB6803F480027B68DB699A421CD1FB68FF
:101AB80003F03F027B681B6A9A4215D1FA6847F621
:101AC800C07313407A68526A93420DD1FB6803F4DD
:101AD80040327B689B6A9A4206D1FB6803F07062C9
:101AE8007B68DB6A9A4201D0012300E00023184694
:101AF8001837BD4680BD00BF007000400038024066
:101B08006000474280B584B000AF786039607B6878
:101B1800002B01D10123CCE0684B1B6803F00F03B5
:101B28003A689A420CD9654B3A68D2B21A70634B3C
:101B38001B6803F00F033A689A4201D00123B8E00A
:101B48007B681B6803F00203002B20D07B681B68AE
:101B580003F00403002B05D0594B9B68584A43F403
:101B6800E05393607B681B6803F00803002B05D0E3
:101B7800534B9B68524A43F460439360504B9B68B5
:101B880023F0F0027B689B684D4913438B607B68A8
:101B98001B6803F00103002B44D07B685B68012BB2
:101BA80007D1474B1B6803F40033002B19D10123DD
:101BB8007FE07B685B68022B03D07B685B68032B44
:101BC80007D13F4B1B6803F00073002B09D1012399
:101BD8006FE03B4B1B6803F00203002B01D101238C
:101BE80067E0374B9B6823F003027B685B683449E6
:101BF80013438B60FFF752FAF8600AE0FFF74EFADA
:101C08000246FB68D31A41F28832934201D9032372
:101C18004FE02B4B9B6803F00C027B685B689B00D2
:101C28009A42EBD1254B1B6803F00F033A689A429E
:101C38000CD2224B3A68D2B21A70204B1B6803F0C0
:101C48000F033A689A4201D0012332E07B681B688F
:101C580003F00403002B08D0194B9B6823F4E052CF
:101C68007B68DB68164913438B607B681B6803F04D
:101C78000803002B09D0124B9B6823F460427B6851
:101C88001B69DB000E4913438B6000F021F8024604
:101C98000B4B9B681B0903F00F030A49CB5C22FA24
:101CA80003F3094A1360094B1B681846FFF7B4F998
:101CB800002318461037BD4680BD00BF003C0240D7
:101CC80000380240243600081000002008000020D8
:101CD8002DE9B04384B000AF00237B600023FB6094
:101CE80000233B600023BB60674B9B6803F00C0339
:101CF800082B0DD0082B00F2BD80002B02D0042B3E
:101D080003D0B7E0614BBB60B7E0614BBB60B4E0A8
:101D18005D4B5B6803F03F037B605B4B5B6803F4E0
:101D28008003002B4DD0584B5B689B091A464FF037
:101D3800000340F2FF104FF0000102EA000803EA36
:101D48000109404649464FF000024FF000034B019D
:101D580043EAD063420110461946B0EB080061EB34
:101D680009014FF000024FF000038B0143EA906332
:101D78008201121A63EB01034FF000004FF00001DB
:101D8800D90041EA5271D00002460B4612EB080214
:101D980043EB09034FF000004FF00001590241EAFC
:101DA800D251500202460B46104619467B681A4625
:101DB8004FF00003FEF7E4F902460B461346FB60BA
:101DC8004AE0314B5B689B091A464FF0000340F22A
:101DD800FF104FF0000102EA000403EA0105204663
:101DE80029464FF000024FF000034B0143EAD0634D
:101DF800420110461946001B61EB05014FF0000235
:101E08004FF000038B0143EA90638201121A63EBDF
:101E180001034FF000004FF00001D90041EA527170
:101E2800D00002460B46121945EB03034FF00000A1
:101E38004FF00001990241EA9251900202460B4686
:101E4800104619467B681A464FF00003FEF798F9CA
:101E580002460B461346FB600B4B5B681B0C03F0FA
:101E6800030301335B003B60FA683B68B2FBF3F3A2
:101E7800BB6002E0054BBB6000BFBB68184610376B
:101E8800BD46BDE8B08300BF003802400024F4001E
:101E980000127A0080B584B000AFF860B9607A604B
:101EA800FB68002B01D1012334E0FB6893F849302B
:101EB800DBB2002B06D1FB68002283F84820F868C3
:101EC80000F0A2F9FB681A68FB6808331946104647
:101ED80000F024F8FB681868FB689B681A46B96824
:101EE80000F06CF8FB685868FB689A68FB681B6B25
:101EF800796800F09FF8FB681B68FA68926853F8E5
:101F08002210FB681B68FA68926841F0010143F8E7
:101F18002210002318461037BD4680BD80B485B016
:101F280000AF786039600023FB603B681A687B6803
:101F380053F82230FB60FA681F4B1340FB603B6884
:101F48005A683B689B681A433B68DB681A433B68DE
:101F58001B691A433B685B691A433B689B691A43D0
:101F68003B68DB691A433B681B6A1A433B685B6A38
:101F78001A433B689B6A1A433B68DB6A1A433B680F
:101F8800DB6B1A433B681B6B1343FA681343FB6014
:101F98003B689B68082B03D1FB6843F04003FB6058
:101FA8003B681A687B68F96843F8221000231846D2
:101FB8001437BD4680BC70478000F0FF80B487B0FE
:101FC80000AFF860B9607A6000237B617B685A1CB7
:101FD800FB6853F822307B617B6903F040437B61E7
:101FE800BB681A68BB685B681B011A43BB689B68BF
:101FF8001B021A43BB68DB681B041A43BB681B69D6
:10200800013B1B051A43BB685B69023B1B061A436D
:10201800BB689B6913437A6913437B617B685A1CCD
:10202800FB68796943F82210002318461C37BD461F
:1020380080BC704780B487B000AFF860B9607A6040
:102048003B6000237B613B68B3F5804F22D1FB687E
:102058007A6853F822307B617A69144B13407B61AC
:10206800BB681A68BB685B681B011A43BB689B683E
:102078001B021A43BB68DB681B041A43BB689B69D5
:1020880013437A6913437B61FB687A68796943F87B
:10209800221005E0FB687A686FF0704143F822105F
:1020A800002318461C37BD4680BC70470000F0CF9F
:1020B80080B588B000AF3B1D00221A605A609A6054
:1020C800DA601A615A619A61274B4FF020421A6010
:1020D800254B264A5A60244B00229A60224B002244
:1020E800DA60214B00221A611F4B10225A611E4BE5
:1020F80000229A611C4B0022DA611B4B00221A62F3
:10210800194B00225A62184B4FF480529A62164BB0
:102118000022DA62144B00221A63134B00225A631E
:10212800114B00229A63104B00225A6402237B60F1
:102138000223BB601023FB6002233B6110237B61F9
:102148000223BB610023FB613B1D002219460648A0
:10215800FFF7A0FE0346002B01D000F045F900BFB1
:102168002037BD4680BD00BF34000020040100A018
:1021780080B586B000AF3B1D00221A605A609A6095
:10218800DA601A611C4B1B68002B31D11A4B0122F3
:102198001A6000233B60194B9B6B184A43F00103FC
:1021A8009363164B9B6B03F001033B603B684FF650
:1021B80080737B600223BB600023FB6003233B61C9
:1021C8000C237B613B1D19460D48FFF779F84CF647
:1021D800B3737B600223BB600023FB6003233B6176
:1021E8000C237B613B1D19460648FFF769F800E0A0
:1021F80000BF1837BD4680BD84000020003802406B
:1022080000100240000C024080B582B000AF786038
:10221800FFF7AEFF00BF0837BD4680BD80B58AB066
:1022280000AF07F1140300221A605A609A60DA605E
:102238001A6100233B612D4B1B6B2C4A43F0800332
:1022480013632A4B1B6B03F080033B613B6900233C
:10225800FB60264B1B6B254A43F010031363234B8B
:102268001B6B03F01003FB60FB680023BB601F4B74
:102278001B6B1E4A43F0080313631C4B1B6B03F0D4
:102288000803BB60BB6800237B60184B1B6B174AB5
:1022980043F001031363154B1B6B03F001037B60D1
:1022A8007B6800233B60114B1B6B104A43F0020311
:1022B80013630E4B1B6B03F002033B603B68002269
:1022C80020210B48FFF796F920237B610123BB618E
:1022D8000023FB6102233B6207F1140319460448FB
:1022E800FEF7EEFF00BF2837BD4680BD003802402C
:1022F8000004024080B500AFFEF76CFE00F00AF85B
:10230800FFF78CFFFFF7D4FEFEF708F8FEF79EFDF7
:10231800FCE7000080B594B000AF07F1200330223D
:102328000021184600F070FA07F10C0300221A6029
:102338005A609A60DA601A610023BB60284B1B6CF4
:10234800274A43F080531364254B1B6C03F08053DA
:10235800BB60BB6800237B60224B1B68214A43F4A7
:10236800804313601F4B1B6803F480437B607B68CA
:1023780001233B624FF480337B620223BB634FF43B
:102388008003FB6304233B64A8237B640223BB64B0
:102398000423FB6407F120031846FFF743F90346BB
:1023A800002B01D000F020F80F23FB6002233B61D3
:1023B80000237B614FF4A053BB614FF48053FB6152
:1023C80007F10C0305211846FFF79CFB0346002B79
:1023D80001D000F009F800BF5037BD4680BD00BFEE
:1023E800003802400070004080B400AF00BFBD4616
:1023F80080BC704780B483B000AF00237B600F4B74
:102408005B6C0E4A43F4804353640C4B5B6C03F4DF
:1024180080437B607B6800233B60084B1B6C074A4A
:1024280043F080531364054B1B6C03F080533B60EF
:102438003B6800BF0C37BD4680BC7047003802407F
:1024480080B400AF00BFBD4680BC704780B400AF09
:10245800FEE780B400AFFEE780B400AFFEE780B4CB
:1024680000AFFEE780B400AF00BFBD4680BC704738
:1024780080B400AF00BFBD4680BC704780B400AFD9
:1024880000BFBD4680BC704780B500AFFEF7F4FDC5
:1024980000BF80BD80B400AF034B4FF000629A606C
:1024A80000BFBD4680BC704700ED00E0DFF834D0C7
:1024B800002103E00C4B5B58435004310B480C4B94
:1024C80042189A42F6D30B4A02E0002342F8043B32
:1024D800094B9A42F9D3FFF7DDFF00F071F9FFF7D6
:1024E80009FF704700000220443600080000002061
:1024F800140000201400002088000020FEE70000DF
:102508002DE9F047089E0D4604468E46002B40F004
:1025180082808A42174646D9B2FA82F24AB1C2F19B
:10252800200105FA02F320FA01F1974041EA030E6F
:1025380094404FEA1748230CBEFBF8FCB9B208FBDD
:102548001CEE43EA0E430CFB01F098420AD9FB1833
:102558000CF1FF3580F01681984240F21381ACF1FE
:10256800020C3B441B1AA4B2B3FBF8F008FB10336F
:1025780044EA034400FB01F1A14209D93C1900F1E6
:10258800FF3380F00181A14240F2FE8002383C44D2
:10259800641A40EA0C4000211EB1D4400023C6E969
:1025A8000043BDE8F08702B9FFDEB2FA82F2002AE2
:1025B8004FD1CB1B4FEA174E1FFA87F80121B3FB07
:1025C800FEFC250C0EFB1C3345EA034508FB0CF307
:1025D800AB4207D97D190CF1FF3002D2AB4200F2B1
:1025E800E7808446ED1AA3B2B5FBFEF00EFB10554A
:1025F80043EA054408FB00F8A04507D93C1900F157
:10260800FF3302D2A04500F2D7801846A4EB080495
:1026180040EA0C40C0E78B4208D9002E00F0AF809A
:102628000021C6E900050846BDE8F087B3FA83F142
:1026380000294BD1AB4202D3824200F2B780841A00
:1026480065EB030301209E46002EAAD0C6E9004E82
:10265800A7E7C2F1200C01FA02F3974020FA0CF028
:102668004FEA174E21FA0CFC1843BCFBFEF1050C8F
:102678000EFB11CC1FFA87F845EA0C4501FB08F35D
:10268800AB4204FA02F409D97D1901F1FF3C80F04C
:102698008B80AB4240F2888002393D44EB1A85B208
:1026A800B3FBFEF00EFB103345EA034500FB08F3CD
:1026B800AB4207D97D1900F1FF3C71D2AB426FD90B
:1026C80002383D44EB1A40EA014178E7C1F1200C99
:1026D8008B4022FA0CF71F4320FA0CF405FA01F399
:1026E8004FEA174E25FA0CF51C43230CB5FBFEF9EF
:1026F8001FFA87F80EFB195543EA054509FB08FA46
:10270800AA4502FA01F200FA01F308D97D1909F184
:10271800FF3047D2AA4545D9A9F102093D44A5EBA6
:102728000A05A4B2B5FBFEF00EFB105544EA0544B9
:1027380000FB08F8A04507D93C1900F1FF352DD258
:10274800A0452BD902383C4440EA0940A4EB0804D0
:10275800A0FB02894C45C6464D4619D316D05EB13A
:10276800B3EB0E0264EB050404FA0CFCCA404CEA15
:102778000202CC40C6E900240021BDE8F0873146BA
:1027880030460EE7AC46EDE6184601E74345E6D28B
:10279800B8EB020E69EB07050138E0E72846D3E7F6
:1027A80060468FE78146BAE7614677E708464BE718
:1027B800ACF1020C3D4415E702383C4426E700BF63
:1027C80070B50D4D0D4C641BA4100026A64209D10E
:1027D8000B4D0C4C00F020F8641BA4100026A642F8
:1027E80005D170BD55F8043B98470136EEE755F81A
:1027F800043B98470136F2E73C3600083C360008AF
:102808003C3600084036000802440346934200D193
:10281800704703F8011BF9E7F8B500BFF8BC08BC1E
:102828009E467047F8B500BFF8BC08BC9E46704786
:1028380039002C0000003400020000000000C10034
:10284800300000008500000078000000040003004C
:10285800120081003E0028000800820027000000C6
:102868000F0031002B000C000E0008004E00F10094
:1028780037000700100003000E00090000000000E8
:1028880000000E0014000300110007003100C10011
:10289800480008000F000C00310036000F0000004F
:1028A8005370656564205465737400007E25642048
:1028B8004650530041424344454647484A4B00006E
:1028C8000000000000000000000000000000000000
:1028D80000000000000000000000000000000000F0
:1028E800000000000000000C000C000C000C000CA4
:1028F800000C000C000C000C000C000C0000000C7C
:10290800000C0000000000000000001B001B001B62
:10291800001B001B00000000000000000000000079
:102928000000000000000000000000000000801906
:10293800801980198019C07FC07F80190033C07F3B
:10294800C07F003300330033003300000000000074
:102958000000001E003F807580650074003C001E6A
:1029680000078005806580658075003F001E0004B3
:10297800000400000000007000D840D8C0D880D9FA
:1029880000730006000C801BC036C066C046C00637
:1029980080030000000000000000001E003F00331C
:1029A80000330033001E000CC03CC06680638061A9
:1029B8008063C03E801C0000000000000000000C86
:1029C800000C000C000C000C0000000000000000CF
:1029D80000000000000000000000000000000000EF
:1029E800800000010003000600060004000C000C33
:1029F800000C000C000C000C00040006000600038C
:102A080000018000002000100018000C000C0004D9
:102A18000006000600060006000600060004000C7A
:102A2800000C0018001000200000000C002D003FD2
:102A3800001E00330000000000000000000000003D
:102A4800000000000000000000000000000000007E
:102A58000000000C000C000C000CC0FFC0FF000CB4
:102A6800000C000C000C000000000000000000003A
:102A7800000000000000000000000000000000004E
:102A880000000000000000000000000C000C000422
:102A98000004000800000000000000000000000022
:102AA800000000000000001E001E000000000000E2
:102AB800000000000000000000000000000000000E
:102AC80000000000000000000000000000000000FE
:102AD8000000000C000C00000000000000000003D3
:102AE800000300030006000600060006000C000CA8
:102AF800000C000C0018001800180000000000006E
:102B08000000001E003F0033806180618061806D9D
:102B1800806D8061806180610033003F001E00008D
:102B28000000000000000006000E001E003600260F
:102B3800000600060006000600060006000600065D
:102B480000060000000000000000001E003F807327
:102B580080618061800100030006000C00180030CD
:102B68000060807F807F0000000000000000001CE3
:102B7800003E006300630003000E000E00038001A6
:102B8800800180618073003F001E0000000000008B
:102B980000000006000E000E001E001E0016003683
:102BA80000360066807F807F000600060006000071
:102BB800000000000000007F007F006000600060EF
:102BC800006E007F80638001800180618073003F18
:102BD800001E0000000000000000001E003F8033BF
:102BE80080610060006E007F807380618061806119
:102BF8008033003F001E0000000000000000807FBE
:102C0800807F80010003000300060006000C000C12
:102C1800000C000800180018001800000000000050
:102C28000000001E003F8063806180610021001E5B
:102C3800003F8061806180618061003F001E00006C
:102C4800000000000000001E003F007380618061EA
:102C580080618073803F801D800180610073003F28
:102C6800001E00000000000000000000000000003E
:102C78000000000C000C0000000000000000000034
:102C88000000000C000C0000000000000000000024
:102C98000000000000000000000C000C0000000014
:102CA800000000000000000C000C000400040008F4
:102CB800000000000000000080008003000E0038C3
:102CC80000600038000E8003800000000000000053
:102CD8000000000000000000000000000000807FED
:102CE800807F00000000807F807F000000000000DF
:102CF80000000000000000000000000000000000CC
:102D080000400070001C000780010007001C0070D4
:102D18000040000000000000000000000000001F4C
:102D2800803FC071C060C000C00180030007000E72
:102D3800000C000C0000000C000C0000000000005B
:102D48000000001E003F803180718063806F806DBD
:102D5800806D806F806700600032003E001C0000BC
:102D6800000000000000000E000E001B001B001BEE
:102D7800001B80318031803F803F8031C060C0605F
:102D8800C0600000000000000000007C007E0063BE
:102D9800006300630063007E007E006380618061E1
:102DA8008063007F007E0000000000000000001E1D
:102DB800003F80318061006000600060006000605A
:102DC800006080618031003F001E000000000000AC
:102DD8000000007C007F0063806380618061806107
:102DE80080618061806100630063007E007C000078
:102DF800000000000000807F807F006000600060AD
:102E08000060007F007F0060006000600060807FDD
:102E1800807F0000000000000000807F807F00604D
:102E2800006000600060007F007F0060006000605C
:102E38000060006000600000000000000000001E4C
:102E4800003F8031806100600060006080638063C3
:102E5800806180618031803F001E0000000000001A
:102E68000000806180618061806180618061807F15
:102E7800807F806180618061806180618061000005
:102E8800000000000000003F003F000C000C000C98
:102E9800000C000C000C000C000C000C000C003F97
:102EA800003F000000000000000080018001800158
:102EB8008001800180018001800180018061806142
:102EC8008073003F001E0000000000000000C0608A
:102ED8008061006300660066006C0078007C006614
:102EE8000066006380618061C0600000000000002F
:102EF800000000600060006000600060006000602A
:102F080000600060006000600060807F807F0000DB
:102F1800000000000000C071C071C07BC07AC06AA8
:102F2800C06AC06EC064C060C060C060C060C0607D
:102F3800C06000000000000000008071807180798E
:102F480080798079806D806D806D8065806780670D
:102F58008067806380630000000000000000001E9E
:102F6800003F0033806180618061806180618061A1
:102F7800806180610033003F001E000000000000F7
:102F88000000007E007F80638061806180618063D3
:102F9800007F007E0060006000600060006000004C
:102FA800000000000000001E003F003380618061C7
:102FB8008061806180618061806580670033803FC7
:102FC800401E0000000000000000007E007F8063BB
:102FD800806180618063007F007E0066006300631B
:102FE80080618061C0600000000000000000000EE9
:102FF800001F8031803100300038001E0007800338
:10300800806180618031003F001E000000000000E8
:103018000000C0FFC0FF000C000C000C000C000CEE
:10302800000C000C000C000C000C000C000C000044
:103038000000000000008061806180618061806123
:103048008061806180618061806180618073003F00
:10305800001E0000000000000000C060C060C060EA
:10306800803180318031001B001B001B001B000ECB
:10307800000E000E00040000000000000000C0C0A8
:10308800C0C0C0C0C0C0C0C0C0CC804C804C805E36
:1030980080528052807380618061000000000000CF
:1030A8000000C0C0806080610033003B001E000C3F
:1030B800000C001E001F003B80718061C0C0000032
:1030C800000000000000C0C0806180610033003350
:1030D800001E001E000C000C000C000C000C000C64
:1030E800000C0000000000000000803F803F8001CD
:1030F800000300030006000C000C00180018003044
:103108000060807F807F000000000000000F000F3B
:10311800000C000C000C000C000C000C000C000C47
:10312800000C000C000C000C000C000C000F000F31
:103138000000001800180018000C000C000C000C0F
:103148000006000600060006000300030003000056
:1031580000000000001E001E000600060006000613
:103168000006000600060006000600060006000627
:1031780000060006001E001E0000000C000C001EC9
:1031880000120033003380618061000000000000FD
:103198000000000000000000000000000000000027
:1031A8000000000000000000000000000000000017
:1031B800000000000000000000000000E0FF000028
:1031C800000000380018000C00000000000000009B
:1031D80000000000000000000000000000000000E7
:1031E8000000000000000000000000000000001FB8
:1031F800803F80618001801F803F80618063807F85
:10320800C03800000000000000000060006000609E
:103218000060006E007F80738061806180618061E2
:103228008073007F006E00000000000000000000B6
:10323800000000000000001E003F807380610060F5
:10324800006080618073003F001E000000000000E5
:1032580000008001800180018001801D803F807313
:1032680080618061806180618073803F801D000083
:103278000000000000000000000000000000001E28
:10328800003F00738061807F807F00608071003F15
:10329800001E0000000000000000C007C00F000C66
:1032A800000C807F807F000C000C000C000C000CD0
:1032B800000C000C000C00000000000000000000E2
:1032C80000000000801D803F807380618061806104
:1032D80080618073803F801D80018063007F003E95
:1032E80000000060006000600060006F807F8071F7
:1032F800806180618061806180618061806100009F
:103308000000000000000006000600000000003E6B
:10331800003E00060006000600060006000600063D
:103328000006000000000000000600060000000083
:10333800003E003E000600060006000600060006E5
:103348000006000600060046007E003C0000006003
:10335800006000600060806100630066006C007CB3
:103368000076006300638061C06000000000000018
:103378000000003E003E00060006000600060006AB
:10338800000600060006000600060006000600000B
:10339800000000000000000000000000000080DDC8
:1033A800C0FFC0CEC0CCC0CCC0CCC0CCC0CCC0CC80
:1033B800C0CC000000000000000000000000000079
:1033C8000000006F807F8071806180618061806112
:1033D8008061806180610000000000000000000042
:1033E800000000000000001E003F807380618061C3
:1033F800806180618073003F001E000000000000B3
:103408000000000000000000006E007F80738061F3
:103418008061806180618073007F006E0060006061
:10342800006000600000000000000000801D803F78
:10343800807380618061806180618073803F801DBE
:103448008001800180018001000000000000000070
:1034580000000067803F0039003000300030003045
:1034680000300030003000000000000000000000C4
:10347800000000000000001E803F80610060007FA7
:10348800803F80018061007F001E00000000000076
:1034980000000000000800180018007F007F0018D6
:1034A80000180018001800180018801F800F00006E
:1034B8000000000000000000000000000000806123
:1034C8008061806180618061806180618063807FCC
:1034D800803D000000000000000000000000000027
:1034E8000000C060803180318031001B001B001B50
:1034F800000E000E000600000000000000000000A2
:1035080000000000000080DD80DD80DD00550055F2
:10351800005500770077002200220000000000001C
:10352800000000000000000000008061003300334C
:10353800001E000C000C001E0033003380610000E8
:1035480000000000000000000000000080618061B1
:10355800803100330033001B001B001B000E000EDF
:10356800000E001C007C007000000000000000003D
:103578000000C07FC07F800100030006000C001817
:103588000030C07FC07F000000000000800380077B
:1035980000060006000600060006000E001C001CBF
:1035A800000E0006000600060006000680078003DD
:1035B80000060006000600060006000600060006D3
:1035C80000060006000600060006000600060006C3
:1035D800000600060038003C000C000C000C000C33
:1035E800000C000E00070007000E000C000C000C79
:1035F800000C000C003C0038000000000000000037
:103608000000000000008038807F004700000000B4
:1036180000000000000000000000000000000000A2
:0C3628000000000001020304060708096E
:08363400D4EEFF7F010000004D
:04363C00E1010008A0
:04364000BD010008C0
:103644000B120000C8280008100000000100000050
:043654000024F4005A
:04000005080024B516
:00000001FF
